{
  "_format": "hh-sol-artifact-1",
  "contractName": "Contract",
  "sourceName": "contracts/Crowdfunding.sol",
  "abi": [
    {
      "inputs": [],
      "stateMutability": "nonpayable",
      "type": "constructor"
    },
    {
      "inputs": [
        {
          "internalType": "uint256",
          "name": "",
          "type": "uint256"
        }
      ],
      "name": "campaigns",
      "outputs": [
        {
          "internalType": "address",
          "name": "owner",
          "type": "address"
        },
        {
          "internalType": "string",
          "name": "title",
          "type": "string"
        },
        {
          "internalType": "string",
          "name": "description",
          "type": "string"
        },
        {
          "internalType": "uint256",
          "name": "target",
          "type": "uint256"
        },
        {
          "internalType": "uint256",
          "name": "deadline",
          "type": "uint256"
        },
        {
          "internalType": "uint256",
          "name": "amountCollected",
          "type": "uint256"
        },
        {
          "internalType": "string",
          "name": "image",
          "type": "string"
        },
        {
          "internalType": "enum Contract.Statuses",
          "name": "status",
          "type": "uint8"
        },
        {
          "internalType": "string",
          "name": "statusName",
          "type": "string"
        }
      ],
      "stateMutability": "view",
      "type": "function"
    },
    {
      "inputs": [
        {
          "internalType": "address",
          "name": "_owner",
          "type": "address"
        },
        {
          "internalType": "string",
          "name": "_title",
          "type": "string"
        },
        {
          "internalType": "string",
          "name": "_description",
          "type": "string"
        },
        {
          "internalType": "uint256",
          "name": "_target",
          "type": "uint256"
        },
        {
          "internalType": "uint256",
          "name": "_deadline",
          "type": "uint256"
        },
        {
          "internalType": "string",
          "name": "_image",
          "type": "string"
        }
      ],
      "name": "createCampaign",
      "outputs": [
        {
          "internalType": "uint256",
          "name": "",
          "type": "uint256"
        }
      ],
      "stateMutability": "nonpayable",
      "type": "function"
    },
    {
      "inputs": [
        {
          "internalType": "uint256",
          "name": "_id",
          "type": "uint256"
        }
      ],
      "name": "donateToCampaign",
      "outputs": [],
      "stateMutability": "payable",
      "type": "function"
    },
    {
      "inputs": [
        {
          "internalType": "uint256",
          "name": "_id",
          "type": "uint256"
        }
      ],
      "name": "getCampaign",
      "outputs": [
        {
          "components": [
            {
              "internalType": "address",
              "name": "owner",
              "type": "address"
            },
            {
              "internalType": "string",
              "name": "title",
              "type": "string"
            },
            {
              "internalType": "string",
              "name": "description",
              "type": "string"
            },
            {
              "internalType": "uint256",
              "name": "target",
              "type": "uint256"
            },
            {
              "internalType": "uint256",
              "name": "deadline",
              "type": "uint256"
            },
            {
              "internalType": "uint256",
              "name": "amountCollected",
              "type": "uint256"
            },
            {
              "internalType": "string",
              "name": "image",
              "type": "string"
            },
            {
              "internalType": "address[]",
              "name": "donators",
              "type": "address[]"
            },
            {
              "internalType": "uint256[]",
              "name": "donations",
              "type": "uint256[]"
            },
            {
              "internalType": "enum Contract.Statuses",
              "name": "status",
              "type": "uint8"
            },
            {
              "internalType": "string",
              "name": "statusName",
              "type": "string"
            }
          ],
          "internalType": "struct Contract.Campaign",
          "name": "",
          "type": "tuple"
        }
      ],
      "stateMutability": "view",
      "type": "function"
    },
    {
      "inputs": [],
      "name": "getCampaigns",
      "outputs": [
        {
          "components": [
            {
              "internalType": "address",
              "name": "owner",
              "type": "address"
            },
            {
              "internalType": "string",
              "name": "title",
              "type": "string"
            },
            {
              "internalType": "string",
              "name": "description",
              "type": "string"
            },
            {
              "internalType": "uint256",
              "name": "target",
              "type": "uint256"
            },
            {
              "internalType": "uint256",
              "name": "deadline",
              "type": "uint256"
            },
            {
              "internalType": "uint256",
              "name": "amountCollected",
              "type": "uint256"
            },
            {
              "internalType": "string",
              "name": "image",
              "type": "string"
            },
            {
              "internalType": "address[]",
              "name": "donators",
              "type": "address[]"
            },
            {
              "internalType": "uint256[]",
              "name": "donations",
              "type": "uint256[]"
            },
            {
              "internalType": "enum Contract.Statuses",
              "name": "status",
              "type": "uint8"
            },
            {
              "internalType": "string",
              "name": "statusName",
              "type": "string"
            }
          ],
          "internalType": "struct Contract.Campaign[]",
          "name": "",
          "type": "tuple[]"
        }
      ],
      "stateMutability": "view",
      "type": "function"
    },
    {
      "inputs": [
        {
          "internalType": "uint256",
          "name": "_id",
          "type": "uint256"
        }
      ],
      "name": "getDonators",
      "outputs": [
        {
          "internalType": "address[]",
          "name": "",
          "type": "address[]"
        },
        {
          "internalType": "uint256[]",
          "name": "",
          "type": "uint256[]"
        }
      ],
      "stateMutability": "view",
      "type": "function"
    },
    {
      "inputs": [
        {
          "internalType": "enum Contract.Statuses",
          "name": "status",
          "type": "uint8"
        }
      ],
      "name": "getStatusKey",
      "outputs": [
        {
          "internalType": "string",
          "name": "",
          "type": "string"
        }
      ],
      "stateMutability": "pure",
      "type": "function"
    },
    {
      "inputs": [],
      "name": "numberOfCampaigns",
      "outputs": [
        {
          "internalType": "uint256",
          "name": "",
          "type": "uint256"
        }
      ],
      "stateMutability": "view",
      "type": "function"
    },
    {
      "inputs": [
        {
          "internalType": "uint256",
          "name": "_id",
          "type": "uint256"
        },
        {
          "internalType": "enum Contract.Statuses",
          "name": "status",
          "type": "uint8"
        }
      ],
      "name": "updateCampaignStatus",
      "outputs": [],
      "stateMutability": "nonpayable",
      "type": "function"
    }
  ],
  "bytecode": "0x6080604052600060025534801561001557600080fd5b50600080546001600160a01b031916331790556117cd806100376000396000f3fe6080604052600436106100865760003560e01c806342a4fda81161005957806342a4fda8146101395780635598f8cc1461014c5780639943e3a114610179578063a6b0363314610199578063d287b084146101bb57600080fd5b806307ca140d1461008b5780630fa91fa9146100b457806310eb6d50146100e2578063141961bc14610104575b600080fd5b34801561009757600080fd5b506100a160025481565b6040519081526020015b60405180910390f35b3480156100c057600080fd5b506100d46100cf366004611092565b6101e8565b6040516100ab9291906110ab565b3480156100ee57600080fd5b506101026100fd366004611143565b6102b9565b005b34801561011057600080fd5b5061012461011f366004611092565b610325565b6040516100ab999897969594939291906111ed565b610102610147366004611092565b6105a0565b34801561015857600080fd5b5061016c610167366004611092565b610661565b6040516100ab91906113dd565b34801561018557600080fd5b506100a161019436600461149a565b6109ee565b3480156101a557600080fd5b506101ae610b2f565b6040516100ab9190611553565b3480156101c757600080fd5b506101db6101d63660046115b5565b610f51565b6040516100ab91906115d0565b60008181526001602090815260409182902060078101805484518185028101850190955280855260609485949293600801929091849183018282801561025757602002820191906000526020600020905b81546001600160a01b03168152600190910190602001808311610239575b50505050509150808054806020026020016040519081016040528092919081815260200182805480156102a957602002820191906000526020600020905b815481526020019060010190808311610295575b5050505050905091509150915091565b6000546001600160a01b031633146102d057600080fd5b60008281526001602081905260409091206009810180549192849260ff191690836002811115610302576103026111b5565b021790555061031082610f51565b600a82019061031f9082611666565b50505050565b6001602081905260009182526040909120805491810180546001600160a01b0390931692610352906115e3565b80601f016020809104026020016040519081016040528092919081815260200182805461037e906115e3565b80156103cb5780601f106103a0576101008083540402835291602001916103cb565b820191906000526020600020905b8154815290600101906020018083116103ae57829003601f168201915b5050505050908060020180546103e0906115e3565b80601f016020809104026020016040519081016040528092919081815260200182805461040c906115e3565b80156104595780601f1061042e57610100808354040283529160200191610459565b820191906000526020600020905b81548152906001019060200180831161043c57829003601f168201915b505050505090806003015490806004015490806005015490806006018054610480906115e3565b80601f01602080910402602001604051908101604052809291908181526020018280546104ac906115e3565b80156104f95780601f106104ce576101008083540402835291602001916104f9565b820191906000526020600020905b8154815290600101906020018083116104dc57829003601f168201915b5050506009840154600a85018054949560ff90921694919350915061051d906115e3565b80601f0160208091040260200160405190810160405280929190818152602001828054610549906115e3565b80156105965780601f1061056b57610100808354040283529160200191610596565b820191906000526020600020905b81548152906001019060200180831161057957829003601f168201915b5050505050905089565b600081815260016020818152604080842060078101805480860182559086528386200180546001600160a01b031916331790556008810180549485018155855291842034930183905581549051929391926001600160a01b039091169084908381818185875af1925050503d8060008114610637576040519150601f19603f3d011682016040523d82523d6000602084013e61063c565b606091505b50509050801561031f57828260050154610656919061173c565b600583015550505050565b61066961101e565b6000828152600160208181526040928390208351610160810190945280546001600160a01b031684529182018054918401916106a4906115e3565b80601f01602080910402602001604051908101604052809291908181526020018280546106d0906115e3565b801561071d5780601f106106f25761010080835404028352916020019161071d565b820191906000526020600020905b81548152906001019060200180831161070057829003601f168201915b50505050508152602001600282018054610736906115e3565b80601f0160208091040260200160405190810160405280929190818152602001828054610762906115e3565b80156107af5780601f10610784576101008083540402835291602001916107af565b820191906000526020600020905b81548152906001019060200180831161079257829003601f168201915b505050505081526020016003820154815260200160048201548152602001600582015481526020016006820180546107e6906115e3565b80601f0160208091040260200160405190810160405280929190818152602001828054610812906115e3565b801561085f5780601f106108345761010080835404028352916020019161085f565b820191906000526020600020905b81548152906001019060200180831161084257829003601f168201915b50505050508152602001600782018054806020026020016040519081016040528092919081815260200182805480156108c157602002820191906000526020600020905b81546001600160a01b031681526001909101906020018083116108a3575b505050505081526020016008820180548060200260200160405190810160405280929190818152602001828054801561091957602002820191906000526020600020905b815481526020019060010190808311610905575b5050509183525050600982015460209091019060ff166002811115610940576109406111b5565b6002811115610951576109516111b5565b8152602001600a82018054610965906115e3565b80601f0160208091040260200160405190810160405280929190818152602001828054610991906115e3565b80156109de5780601f106109b3576101008083540402835291602001916109de565b820191906000526020600020905b8154815290600101906020018083116109c157829003601f168201915b5050505050815250509050919050565b600254600090815260016020526040812060048101544211610a6b5760405162461bcd60e51b815260206004820152602c60248201527f54686520646561646c696e652073686f756c642062652061206461746520696e60448201526b103a343290333aba3ab9329760a11b606482015260840160405180910390fd5b80546001600160a01b0319166001600160a01b03891617815560018101610a928882611666565b5060028101610aa18782611666565b5060038101859055600481018490556000600582015560068101610ac58482611666565b5060098101805460ff1916905560408051808201909152600681526541435449564560d01b6020820152600a820190610afe9082611666565b5060028054906000610b0f83611755565b91905055506001600254610b23919061176e565b98975050505050505050565b6060600060025467ffffffffffffffff811115610b4e57610b4e6113f7565b604051908082528060200260200182016040528015610b8757816020015b610b7461101e565b815260200190600190039081610b6c5790505b50905060005b600254811015610f4b576000818152600160208181526040928390208351610160810190945280546001600160a01b031684529182018054929392849284019190610bd7906115e3565b80601f0160208091040260200160405190810160405280929190818152602001828054610c03906115e3565b8015610c505780601f10610c2557610100808354040283529160200191610c50565b820191906000526020600020905b815481529060010190602001808311610c3357829003601f168201915b50505050508152602001600282018054610c69906115e3565b80601f0160208091040260200160405190810160405280929190818152602001828054610c95906115e3565b8015610ce25780601f10610cb757610100808354040283529160200191610ce2565b820191906000526020600020905b815481529060010190602001808311610cc557829003601f168201915b50505050508152602001600382015481526020016004820154815260200160058201548152602001600682018054610d19906115e3565b80601f0160208091040260200160405190810160405280929190818152602001828054610d45906115e3565b8015610d925780601f10610d6757610100808354040283529160200191610d92565b820191906000526020600020905b815481529060010190602001808311610d7557829003601f168201915b5050505050815260200160078201805480602002602001604051908101604052809291908181526020018280548015610df457602002820191906000526020600020905b81546001600160a01b03168152600190910190602001808311610dd6575b5050505050815260200160088201805480602002602001604051908101604052809291908181526020018280548015610e4c57602002820191906000526020600020905b815481526020019060010190808311610e38575b5050509183525050600982015460209091019060ff166002811115610e7357610e736111b5565b6002811115610e8457610e846111b5565b8152602001600a82018054610e98906115e3565b80601f0160208091040260200160405190810160405280929190818152602001828054610ec4906115e3565b8015610f115780601f10610ee657610100808354040283529160200191610f11565b820191906000526020600020905b815481529060010190602001808311610ef457829003601f168201915b505050505081525050838381518110610f2c57610f2c611781565b6020026020010181905250508080610f4390611755565b915050610b8d565b50919050565b6060816002811115610f6557610f656111b5565b600003610f8e57505060408051808201909152600681526541435449564560d01b602082015290565b816002811115610fa057610fa06111b5565b600103610fce57505060408051808201909152600b81526a11115050d512559055115160aa1b602082015290565b816002811115610fe057610fe06111b5565b60020361100a5750506040805180820190915260078152661156141254915160ca1b602082015290565b505060408051602081019091526000815290565b60405180610160016040528060006001600160a01b03168152602001606081526020016060815260200160008152602001600081526020016000815260200160608152602001606081526020016060815260200160006002811115611085576110856111b5565b8152602001606081525090565b6000602082840312156110a457600080fd5b5035919050565b604080825283519082018190526000906020906060840190828701845b828110156110ed5781516001600160a01b0316845292840192908401906001016110c8565b5050508381038285015284518082528583019183019060005b8181101561112257835183529284019291840191600101611106565b5090979650505050505050565b80356003811061113e57600080fd5b919050565b6000806040838503121561115657600080fd5b823591506111666020840161112f565b90509250929050565b6000815180845260005b8181101561119557602081850181015186830182015201611179565b506000602082860101526020601f19601f83011685010191505092915050565b634e487b7160e01b600052602160045260246000fd5b600381106111e957634e487b7160e01b600052602160045260246000fd5b9052565b6001600160a01b038a168152610120602082018190526000906112128382018c61116f565b90508281036040840152611226818b61116f565b90508860608401528760808401528660a084015282810360c084015261124c818761116f565b905061125b60e08401866111cb565b82810361010084015261126e818561116f565b9c9b505050505050505050505050565b600081518084526020808501945080840160005b838110156112b75781516001600160a01b031687529582019590820190600101611292565b509495945050505050565b600081518084526020808501945080840160005b838110156112b7578151875295820195908201906001016112d6565b80516001600160a01b031682526000610160602083015181602086015261131b8286018261116f565b91505060408301518482036040860152611335828261116f565b915050606083015160608501526080830151608085015260a083015160a085015260c083015184820360c086015261136d828261116f565b91505060e083015184820360e0860152611387828261127e565b91505061010080840151858303828701526113a283826112c2565b92505050610120808401516113b9828701826111cb565b505061014080840151858303828701526113d3838261116f565b9695505050505050565b6020815260006113f060208301846112f2565b9392505050565b634e487b7160e01b600052604160045260246000fd5b600082601f83011261141e57600080fd5b813567ffffffffffffffff80821115611439576114396113f7565b604051601f8301601f19908116603f01168101908282118183101715611461576114616113f7565b8160405283815286602085880101111561147a57600080fd5b836020870160208301376000602085830101528094505050505092915050565b60008060008060008060c087890312156114b357600080fd5b86356001600160a01b03811681146114ca57600080fd5b9550602087013567ffffffffffffffff808211156114e757600080fd5b6114f38a838b0161140d565b9650604089013591508082111561150957600080fd5b6115158a838b0161140d565b9550606089013594506080890135935060a089013591508082111561153957600080fd5b5061154689828a0161140d565b9150509295509295509295565b6000602080830181845280855180835260408601915060408160051b870101925083870160005b828110156115a857603f198886030184526115968583516112f2565b9450928501929085019060010161157a565b5092979650505050505050565b6000602082840312156115c757600080fd5b6113f08261112f565b6020815260006113f0602083018461116f565b600181811c908216806115f757607f821691505b602082108103610f4b57634e487b7160e01b600052602260045260246000fd5b601f82111561166157600081815260208120601f850160051c8101602086101561163e5750805b601f850160051c820191505b8181101561165d5782815560010161164a565b5050505b505050565b815167ffffffffffffffff811115611680576116806113f7565b6116948161168e84546115e3565b84611617565b602080601f8311600181146116c957600084156116b15750858301515b600019600386901b1c1916600185901b17855561165d565b600085815260208120601f198616915b828110156116f8578886015182559484019460019091019084016116d9565b50858210156117165787850151600019600388901b60f8161c191681555b5050505050600190811b01905550565b634e487b7160e01b600052601160045260246000fd5b8082018082111561174f5761174f611726565b92915050565b60006001820161176757611767611726565b5060010190565b8181038181111561174f5761174f611726565b634e487b7160e01b600052603260045260246000fdfea2646970667358221220c52f990bb40edf52a756c9b28003075c97f4ee237956bb638d24916720f2ee4a64736f6c63430008110033",
  "linkReferences": {},
  "deployedLinkReferences": {}
}