{
  "_format": "hh-sol-artifact-1",
  "contractName": "Contract",
  "sourceName": "contracts/Crowdfunding.sol",
  "abi": [
    {
      "inputs": [],
      "stateMutability": "nonpayable",
      "type": "constructor"
    },
    {
      "inputs": [
        {
          "internalType": "uint256",
          "name": "",
          "type": "uint256"
        }
      ],
      "name": "campaigns",
      "outputs": [
        {
          "internalType": "address",
          "name": "owner",
          "type": "address"
        },
        {
          "internalType": "string",
          "name": "title",
          "type": "string"
        },
        {
          "internalType": "string",
          "name": "description",
          "type": "string"
        },
        {
          "internalType": "uint256",
          "name": "target",
          "type": "uint256"
        },
        {
          "internalType": "uint256",
          "name": "deadline",
          "type": "uint256"
        },
        {
          "internalType": "uint256",
          "name": "amountCollected",
          "type": "uint256"
        },
        {
          "internalType": "string",
          "name": "image",
          "type": "string"
        },
        {
          "internalType": "enum Contract.Statuses",
          "name": "status",
          "type": "uint8"
        },
        {
          "internalType": "string",
          "name": "statusName",
          "type": "string"
        }
      ],
      "stateMutability": "view",
      "type": "function"
    },
    {
      "inputs": [
        {
          "internalType": "address",
          "name": "_owner",
          "type": "address"
        },
        {
          "internalType": "string",
          "name": "_title",
          "type": "string"
        },
        {
          "internalType": "string",
          "name": "_description",
          "type": "string"
        },
        {
          "internalType": "uint256",
          "name": "_target",
          "type": "uint256"
        },
        {
          "internalType": "uint256",
          "name": "_deadline",
          "type": "uint256"
        },
        {
          "internalType": "string",
          "name": "_image",
          "type": "string"
        }
      ],
      "name": "createCampaign",
      "outputs": [
        {
          "internalType": "uint256",
          "name": "",
          "type": "uint256"
        }
      ],
      "stateMutability": "nonpayable",
      "type": "function"
    },
    {
      "inputs": [
        {
          "internalType": "uint256",
          "name": "_id",
          "type": "uint256"
        }
      ],
      "name": "deactivateCampaign",
      "outputs": [],
      "stateMutability": "nonpayable",
      "type": "function"
    },
    {
      "inputs": [
        {
          "internalType": "uint256",
          "name": "_id",
          "type": "uint256"
        }
      ],
      "name": "donateToCampaign",
      "outputs": [],
      "stateMutability": "payable",
      "type": "function"
    },
    {
      "inputs": [
        {
          "internalType": "uint256",
          "name": "_id",
          "type": "uint256"
        }
      ],
      "name": "getCampaign",
      "outputs": [
        {
          "components": [
            {
              "internalType": "address",
              "name": "owner",
              "type": "address"
            },
            {
              "internalType": "string",
              "name": "title",
              "type": "string"
            },
            {
              "internalType": "string",
              "name": "description",
              "type": "string"
            },
            {
              "internalType": "uint256",
              "name": "target",
              "type": "uint256"
            },
            {
              "internalType": "uint256",
              "name": "deadline",
              "type": "uint256"
            },
            {
              "internalType": "uint256",
              "name": "amountCollected",
              "type": "uint256"
            },
            {
              "internalType": "string",
              "name": "image",
              "type": "string"
            },
            {
              "internalType": "address[]",
              "name": "donators",
              "type": "address[]"
            },
            {
              "internalType": "uint256[]",
              "name": "donations",
              "type": "uint256[]"
            },
            {
              "internalType": "enum Contract.Statuses",
              "name": "status",
              "type": "uint8"
            },
            {
              "internalType": "string",
              "name": "statusName",
              "type": "string"
            }
          ],
          "internalType": "struct Contract.Campaign",
          "name": "",
          "type": "tuple"
        }
      ],
      "stateMutability": "view",
      "type": "function"
    },
    {
      "inputs": [],
      "name": "getCampaigns",
      "outputs": [
        {
          "components": [
            {
              "internalType": "address",
              "name": "owner",
              "type": "address"
            },
            {
              "internalType": "string",
              "name": "title",
              "type": "string"
            },
            {
              "internalType": "string",
              "name": "description",
              "type": "string"
            },
            {
              "internalType": "uint256",
              "name": "target",
              "type": "uint256"
            },
            {
              "internalType": "uint256",
              "name": "deadline",
              "type": "uint256"
            },
            {
              "internalType": "uint256",
              "name": "amountCollected",
              "type": "uint256"
            },
            {
              "internalType": "string",
              "name": "image",
              "type": "string"
            },
            {
              "internalType": "address[]",
              "name": "donators",
              "type": "address[]"
            },
            {
              "internalType": "uint256[]",
              "name": "donations",
              "type": "uint256[]"
            },
            {
              "internalType": "enum Contract.Statuses",
              "name": "status",
              "type": "uint8"
            },
            {
              "internalType": "string",
              "name": "statusName",
              "type": "string"
            }
          ],
          "internalType": "struct Contract.Campaign[]",
          "name": "",
          "type": "tuple[]"
        }
      ],
      "stateMutability": "view",
      "type": "function"
    },
    {
      "inputs": [
        {
          "internalType": "uint256",
          "name": "_id",
          "type": "uint256"
        }
      ],
      "name": "getDonators",
      "outputs": [
        {
          "internalType": "address[]",
          "name": "",
          "type": "address[]"
        },
        {
          "internalType": "uint256[]",
          "name": "",
          "type": "uint256[]"
        }
      ],
      "stateMutability": "view",
      "type": "function"
    },
    {
      "inputs": [
        {
          "internalType": "enum Contract.Statuses",
          "name": "status",
          "type": "uint8"
        }
      ],
      "name": "getStatusKey",
      "outputs": [
        {
          "internalType": "string",
          "name": "",
          "type": "string"
        }
      ],
      "stateMutability": "pure",
      "type": "function"
    },
    {
      "inputs": [],
      "name": "numberOfCampaigns",
      "outputs": [
        {
          "internalType": "uint256",
          "name": "",
          "type": "uint256"
        }
      ],
      "stateMutability": "view",
      "type": "function"
    }
  ],
  "bytecode": "0x6080604052600060025534801561001557600080fd5b50600080546001600160a01b03191633179055611786806100376000396000f3fe6080604052600436106100865760003560e01c80635598f8cc116100595780635598f8cc1461012c5780637eca30fe146101595780639943e3a114610179578063a6b0363314610199578063d287b084146101bb57600080fd5b806307ca140d1461008b5780630fa91fa9146100b4578063141961bc146100e257806342a4fda814610117575b600080fd5b34801561009757600080fd5b506100a160025481565b6040519081526020015b60405180910390f35b3480156100c057600080fd5b506100d46100cf3660046110b4565b6101e8565b6040516100ab929190611108565b3480156100ee57600080fd5b506101026100fd3660046110b4565b6102b9565b6040516100ab999897969594939291906111e6565b61012a6101253660046110b4565b610534565b005b34801561013857600080fd5b5061014c6101473660046110b4565b610598565b6040516100ab9190611391565b34801561016557600080fd5b5061012a6101743660046110b4565b610925565b34801561018557600080fd5b506100a161019436600461144e565b610a10565b3480156101a557600080fd5b506101ae610b51565b6040516100ab9190611507565b3480156101c757600080fd5b506101db6101d6366004611569565b610f73565b6040516100ab919061158a565b60008181526001602090815260409182902060078101805484518185028101850190955280855260609485949293600801929091849183018282801561025757602002820191906000526020600020905b81546001600160a01b03168152600190910190602001808311610239575b50505050509150808054806020026020016040519081016040528092919081815260200182805480156102a957602002820191906000526020600020905b815481526020019060010190808311610295575b5050505050905091509150915091565b6001602081905260009182526040909120805491810180546001600160a01b03909316926102e69061159d565b80601f01602080910402602001604051908101604052809291908181526020018280546103129061159d565b801561035f5780601f106103345761010080835404028352916020019161035f565b820191906000526020600020905b81548152906001019060200180831161034257829003601f168201915b5050505050908060020180546103749061159d565b80601f01602080910402602001604051908101604052809291908181526020018280546103a09061159d565b80156103ed5780601f106103c2576101008083540402835291602001916103ed565b820191906000526020600020905b8154815290600101906020018083116103d057829003601f168201915b5050505050908060030154908060040154908060050154908060060180546104149061159d565b80601f01602080910402602001604051908101604052809291908181526020018280546104409061159d565b801561048d5780601f106104625761010080835404028352916020019161048d565b820191906000526020600020905b81548152906001019060200180831161047057829003601f168201915b5050506009840154600a85018054949560ff9092169491935091506104b19061159d565b80601f01602080910402602001604051908101604052809291908181526020018280546104dd9061159d565b801561052a5780601f106104ff5761010080835404028352916020019161052a565b820191906000526020600020905b81548152906001019060200180831161050d57829003601f168201915b5050505050905089565b6000818152600160208181526040832060078101805480850182559085528285200180546001600160a01b03191633179055600881018054938401815584529220349101819055600582015490919061058e9083906115e7565b6005909101555050565b6105a0611040565b6000828152600160208181526040928390208351610160810190945280546001600160a01b031684529182018054918401916105db9061159d565b80601f01602080910402602001604051908101604052809291908181526020018280546106079061159d565b80156106545780601f1061062957610100808354040283529160200191610654565b820191906000526020600020905b81548152906001019060200180831161063757829003601f168201915b5050505050815260200160028201805461066d9061159d565b80601f01602080910402602001604051908101604052809291908181526020018280546106999061159d565b80156106e65780601f106106bb576101008083540402835291602001916106e6565b820191906000526020600020905b8154815290600101906020018083116106c957829003601f168201915b5050505050815260200160038201548152602001600482015481526020016005820154815260200160068201805461071d9061159d565b80601f01602080910402602001604051908101604052809291908181526020018280546107499061159d565b80156107965780601f1061076b57610100808354040283529160200191610796565b820191906000526020600020905b81548152906001019060200180831161077957829003601f168201915b50505050508152602001600782018054806020026020016040519081016040528092919081815260200182805480156107f857602002820191906000526020600020905b81546001600160a01b031681526001909101906020018083116107da575b505050505081526020016008820180548060200260200160405190810160405280929190818152602001828054801561085057602002820191906000526020600020905b81548152602001906001019080831161083c575b5050509183525050600982015460209091019060ff166002811115610877576108776111ae565b6002811115610888576108886111ae565b8152602001600a8201805461089c9061159d565b80601f01602080910402602001604051908101604052809291908181526020018280546108c89061159d565b80156109155780601f106108ea57610100808354040283529160200191610915565b820191906000526020600020905b8154815290600101906020018083116108f857829003601f168201915b5050505050815250509050919050565b600081815260016020819052604090912060098101805460ff1916831790559061094e90610f73565b600a82019061095d908261164e565b5060005b6007820154811015610a0b5760008260070182815481106109845761098461170e565b60009182526020822001546008850180546001600160a01b03909216935090849081106109b3576109b361170e565b60009182526020822001546040519092506001600160a01b0384169183156108fc02918491818181858888f193505050501580156109f5573d6000803e3d6000fd5b5050508080610a0390611724565b915050610961565b505050565b600254600090815260016020526040812060048101544211610a8d5760405162461bcd60e51b815260206004820152602c60248201527f54686520646561646c696e652073686f756c642062652061206461746520696e60448201526b103a343290333aba3ab9329760a11b606482015260840160405180910390fd5b80546001600160a01b0319166001600160a01b03891617815560018101610ab4888261164e565b5060028101610ac3878261164e565b5060038101859055600481018490556000600582015560068101610ae7848261164e565b5060098101805460ff1916905560408051808201909152600681526541435449564560d01b6020820152600a820190610b20908261164e565b5060028054906000610b3183611724565b91905055506001600254610b45919061173d565b98975050505050505050565b6060600060025467ffffffffffffffff811115610b7057610b706113ab565b604051908082528060200260200182016040528015610ba957816020015b610b96611040565b815260200190600190039081610b8e5790505b50905060005b600254811015610f6d576000818152600160208181526040928390208351610160810190945280546001600160a01b031684529182018054929392849284019190610bf99061159d565b80601f0160208091040260200160405190810160405280929190818152602001828054610c259061159d565b8015610c725780601f10610c4757610100808354040283529160200191610c72565b820191906000526020600020905b815481529060010190602001808311610c5557829003601f168201915b50505050508152602001600282018054610c8b9061159d565b80601f0160208091040260200160405190810160405280929190818152602001828054610cb79061159d565b8015610d045780601f10610cd957610100808354040283529160200191610d04565b820191906000526020600020905b815481529060010190602001808311610ce757829003601f168201915b50505050508152602001600382015481526020016004820154815260200160058201548152602001600682018054610d3b9061159d565b80601f0160208091040260200160405190810160405280929190818152602001828054610d679061159d565b8015610db45780601f10610d8957610100808354040283529160200191610db4565b820191906000526020600020905b815481529060010190602001808311610d9757829003601f168201915b5050505050815260200160078201805480602002602001604051908101604052809291908181526020018280548015610e1657602002820191906000526020600020905b81546001600160a01b03168152600190910190602001808311610df8575b5050505050815260200160088201805480602002602001604051908101604052809291908181526020018280548015610e6e57602002820191906000526020600020905b815481526020019060010190808311610e5a575b5050509183525050600982015460209091019060ff166002811115610e9557610e956111ae565b6002811115610ea657610ea66111ae565b8152602001600a82018054610eba9061159d565b80601f0160208091040260200160405190810160405280929190818152602001828054610ee69061159d565b8015610f335780601f10610f0857610100808354040283529160200191610f33565b820191906000526020600020905b815481529060010190602001808311610f1657829003601f168201915b505050505081525050838381518110610f4e57610f4e61170e565b6020026020010181905250508080610f6590611724565b915050610baf565b50919050565b6060816002811115610f8757610f876111ae565b600003610fb057505060408051808201909152600681526541435449564560d01b602082015290565b816002811115610fc257610fc26111ae565b600103610ff057505060408051808201909152600b81526a11115050d512559055115160aa1b602082015290565b816002811115611002576110026111ae565b60020361102c5750506040805180820190915260078152661156141254915160ca1b602082015290565b505060408051602081019091526000815290565b60405180610160016040528060006001600160a01b031681526020016060815260200160608152602001600081526020016000815260200160008152602001606081526020016060815260200160608152602001600060028111156110a7576110a76111ae565b8152602001606081525090565b6000602082840312156110c657600080fd5b5035919050565b600081518084526020808501945080840160005b838110156110fd578151875295820195908201906001016110e1565b509495945050505050565b604080825283519082018190526000906020906060840190828701845b8281101561114a5781516001600160a01b031684529284019290840190600101611125565b5050508381038285015261115e81866110cd565b9695505050505050565b6000815180845260005b8181101561118e57602081850181015186830182015201611172565b506000602082860101526020601f19601f83011685010191505092915050565b634e487b7160e01b600052602160045260246000fd5b600381106111e257634e487b7160e01b600052602160045260246000fd5b9052565b6001600160a01b038a1681526101206020820181905260009061120b8382018c611168565b9050828103604084015261121f818b611168565b90508860608401528760808401528660a084015282810360c08401526112458187611168565b905061125460e08401866111c4565b8281036101008401526112678185611168565b9c9b505050505050505050505050565b600081518084526020808501945080840160005b838110156110fd5781516001600160a01b03168752958201959082019060010161128b565b80516001600160a01b03168252600061016060208301518160208601526112d982860182611168565b915050604083015184820360408601526112f38282611168565b915050606083015160608501526080830151608085015260a083015160a085015260c083015184820360c086015261132b8282611168565b91505060e083015184820360e08601526113458282611277565b915050610100808401518583038287015261136083826110cd565b9250505061012080840151611377828701826111c4565b5050610140808401518583038287015261115e8382611168565b6020815260006113a460208301846112b0565b9392505050565b634e487b7160e01b600052604160045260246000fd5b600082601f8301126113d257600080fd5b813567ffffffffffffffff808211156113ed576113ed6113ab565b604051601f8301601f19908116603f01168101908282118183101715611415576114156113ab565b8160405283815286602085880101111561142e57600080fd5b836020870160208301376000602085830101528094505050505092915050565b60008060008060008060c0878903121561146757600080fd5b86356001600160a01b038116811461147e57600080fd5b9550602087013567ffffffffffffffff8082111561149b57600080fd5b6114a78a838b016113c1565b965060408901359150808211156114bd57600080fd5b6114c98a838b016113c1565b9550606089013594506080890135935060a08901359150808211156114ed57600080fd5b506114fa89828a016113c1565b9150509295509295509295565b6000602080830181845280855180835260408601915060408160051b870101925083870160005b8281101561155c57603f1988860301845261154a8583516112b0565b9450928501929085019060010161152e565b5092979650505050505050565b60006020828403121561157b57600080fd5b8135600381106113a457600080fd5b6020815260006113a46020830184611168565b600181811c908216806115b157607f821691505b602082108103610f6d57634e487b7160e01b600052602260045260246000fd5b634e487b7160e01b600052601160045260246000fd5b808201808211156115fa576115fa6115d1565b92915050565b601f821115610a0b57600081815260208120601f850160051c810160208610156116275750805b601f850160051c820191505b8181101561164657828155600101611633565b505050505050565b815167ffffffffffffffff811115611668576116686113ab565b61167c81611676845461159d565b84611600565b602080601f8311600181146116b157600084156116995750858301515b600019600386901b1c1916600185901b178555611646565b600085815260208120601f198616915b828110156116e0578886015182559484019460019091019084016116c1565b50858210156116fe5787850151600019600388901b60f8161c191681555b5050505050600190811b01905550565b634e487b7160e01b600052603260045260246000fd5b600060018201611736576117366115d1565b5060010190565b818103818111156115fa576115fa6115d156fea2646970667358221220d32829754e3bd3408663c894e1e601f030b539dcb87e34b044d94b2b67a9c3d364736f6c63430008110033",
  "linkReferences": {},
  "deployedLinkReferences": {}
}