{
  "_format": "hh-sol-artifact-1",
  "contractName": "Contract",
  "sourceName": "contracts/Crowdfunding.sol",
  "abi": [
    {
      "inputs": [],
      "stateMutability": "nonpayable",
      "type": "constructor"
    },
    {
      "inputs": [
        {
          "internalType": "uint256",
          "name": "",
          "type": "uint256"
        }
      ],
      "name": "campaigns",
      "outputs": [
        {
          "internalType": "address",
          "name": "owner",
          "type": "address"
        },
        {
          "internalType": "string",
          "name": "title",
          "type": "string"
        },
        {
          "internalType": "string",
          "name": "description",
          "type": "string"
        },
        {
          "internalType": "uint256",
          "name": "target",
          "type": "uint256"
        },
        {
          "internalType": "uint256",
          "name": "deadline",
          "type": "uint256"
        },
        {
          "internalType": "uint256",
          "name": "amountCollected",
          "type": "uint256"
        },
        {
          "internalType": "string",
          "name": "image",
          "type": "string"
        },
        {
          "internalType": "enum Contract.Statuses",
          "name": "status",
          "type": "uint8"
        },
        {
          "internalType": "string",
          "name": "statusName",
          "type": "string"
        }
      ],
      "stateMutability": "view",
      "type": "function"
    },
    {
      "inputs": [
        {
          "internalType": "uint256",
          "name": "_id",
          "type": "uint256"
        }
      ],
      "name": "claim",
      "outputs": [],
      "stateMutability": "nonpayable",
      "type": "function"
    },
    {
      "inputs": [
        {
          "internalType": "address",
          "name": "_owner",
          "type": "address"
        },
        {
          "internalType": "string",
          "name": "_title",
          "type": "string"
        },
        {
          "internalType": "string",
          "name": "_description",
          "type": "string"
        },
        {
          "internalType": "uint256",
          "name": "_target",
          "type": "uint256"
        },
        {
          "internalType": "uint256",
          "name": "_deadline",
          "type": "uint256"
        },
        {
          "internalType": "string",
          "name": "_image",
          "type": "string"
        }
      ],
      "name": "createCampaign",
      "outputs": [
        {
          "internalType": "uint256",
          "name": "",
          "type": "uint256"
        }
      ],
      "stateMutability": "nonpayable",
      "type": "function"
    },
    {
      "inputs": [
        {
          "internalType": "uint256",
          "name": "_id",
          "type": "uint256"
        }
      ],
      "name": "deactivateCampaign",
      "outputs": [],
      "stateMutability": "nonpayable",
      "type": "function"
    },
    {
      "inputs": [
        {
          "internalType": "uint256",
          "name": "_id",
          "type": "uint256"
        }
      ],
      "name": "donateToCampaign",
      "outputs": [],
      "stateMutability": "payable",
      "type": "function"
    },
    {
      "inputs": [
        {
          "internalType": "uint256",
          "name": "_id",
          "type": "uint256"
        }
      ],
      "name": "getCampaign",
      "outputs": [
        {
          "components": [
            {
              "internalType": "address",
              "name": "owner",
              "type": "address"
            },
            {
              "internalType": "string",
              "name": "title",
              "type": "string"
            },
            {
              "internalType": "string",
              "name": "description",
              "type": "string"
            },
            {
              "internalType": "uint256",
              "name": "target",
              "type": "uint256"
            },
            {
              "internalType": "uint256",
              "name": "deadline",
              "type": "uint256"
            },
            {
              "internalType": "uint256",
              "name": "amountCollected",
              "type": "uint256"
            },
            {
              "internalType": "string",
              "name": "image",
              "type": "string"
            },
            {
              "internalType": "address[]",
              "name": "donators",
              "type": "address[]"
            },
            {
              "internalType": "uint256[]",
              "name": "donations",
              "type": "uint256[]"
            },
            {
              "internalType": "enum Contract.Statuses",
              "name": "status",
              "type": "uint8"
            },
            {
              "internalType": "string",
              "name": "statusName",
              "type": "string"
            }
          ],
          "internalType": "struct Contract.Campaign",
          "name": "",
          "type": "tuple"
        },
        {
          "internalType": "bool",
          "name": "",
          "type": "bool"
        }
      ],
      "stateMutability": "view",
      "type": "function"
    },
    {
      "inputs": [],
      "name": "getCampaigns",
      "outputs": [
        {
          "components": [
            {
              "internalType": "address",
              "name": "owner",
              "type": "address"
            },
            {
              "internalType": "string",
              "name": "title",
              "type": "string"
            },
            {
              "internalType": "string",
              "name": "description",
              "type": "string"
            },
            {
              "internalType": "uint256",
              "name": "target",
              "type": "uint256"
            },
            {
              "internalType": "uint256",
              "name": "deadline",
              "type": "uint256"
            },
            {
              "internalType": "uint256",
              "name": "amountCollected",
              "type": "uint256"
            },
            {
              "internalType": "string",
              "name": "image",
              "type": "string"
            },
            {
              "internalType": "address[]",
              "name": "donators",
              "type": "address[]"
            },
            {
              "internalType": "uint256[]",
              "name": "donations",
              "type": "uint256[]"
            },
            {
              "internalType": "enum Contract.Statuses",
              "name": "status",
              "type": "uint8"
            },
            {
              "internalType": "string",
              "name": "statusName",
              "type": "string"
            }
          ],
          "internalType": "struct Contract.Campaign[]",
          "name": "",
          "type": "tuple[]"
        }
      ],
      "stateMutability": "view",
      "type": "function"
    },
    {
      "inputs": [
        {
          "internalType": "uint256",
          "name": "_id",
          "type": "uint256"
        }
      ],
      "name": "getDonators",
      "outputs": [
        {
          "internalType": "address[]",
          "name": "",
          "type": "address[]"
        },
        {
          "internalType": "uint256[]",
          "name": "",
          "type": "uint256[]"
        }
      ],
      "stateMutability": "view",
      "type": "function"
    },
    {
      "inputs": [
        {
          "internalType": "enum Contract.Statuses",
          "name": "status",
          "type": "uint8"
        }
      ],
      "name": "getStatusKey",
      "outputs": [
        {
          "internalType": "string",
          "name": "",
          "type": "string"
        }
      ],
      "stateMutability": "pure",
      "type": "function"
    },
    {
      "inputs": [],
      "name": "numberOfCampaigns",
      "outputs": [
        {
          "internalType": "uint256",
          "name": "",
          "type": "uint256"
        }
      ],
      "stateMutability": "view",
      "type": "function"
    }
  ],
  "bytecode": "0x6080604052600060025534801561001557600080fd5b50600080546001600160a01b03191633179055611af4806100376000396000f3fe6080604052600436106100915760003560e01c80635598f8cc116100595780635598f8cc146101575780637eca30fe146101855780639943e3a1146101a5578063a6b03633146101c5578063d287b084146101e757600080fd5b806307ca140d146100965780630fa91fa9146100bf578063141961bc146100ed578063379607f51461012257806342a4fda814610144575b600080fd5b3480156100a257600080fd5b506100ac60025481565b6040519081526020015b60405180910390f35b3480156100cb57600080fd5b506100df6100da366004611411565b610214565b6040516100b6929190611465565b3480156100f957600080fd5b5061010d610108366004611411565b6102e5565b6040516100b699989796959493929190611543565b34801561012e57600080fd5b5061014261013d366004611411565b610560565b005b610142610152366004611411565b61078d565b34801561016357600080fd5b50610177610172366004611411565b6107f1565b6040516100b69291906116ee565b34801561019157600080fd5b506101426101a0366004611411565b610bac565b3480156101b157600080fd5b506100ac6101c03660046117b5565b610c9d565b3480156101d157600080fd5b506101da610dda565b6040516100b6919061186e565b3480156101f357600080fd5b506102076102023660046118d0565b6111fc565b6040516100b691906118f8565b60008181526001602090815260409182902060078101805484518185028101850190955280855260609485949293600801929091849183018282801561028357602002820191906000526020600020905b81546001600160a01b03168152600190910190602001808311610265575b50505050509150808054806020026020016040519081016040528092919081815260200182805480156102d557602002820191906000526020600020905b8154815260200190600101908083116102c1575b5050505050905091509150915091565b6001602081905260009182526040909120805491810180546001600160a01b03909316926103129061190b565b80601f016020809104026020016040519081016040528092919081815260200182805461033e9061190b565b801561038b5780601f106103605761010080835404028352916020019161038b565b820191906000526020600020905b81548152906001019060200180831161036e57829003601f168201915b5050505050908060020180546103a09061190b565b80601f01602080910402602001604051908101604052809291908181526020018280546103cc9061190b565b80156104195780601f106103ee57610100808354040283529160200191610419565b820191906000526020600020905b8154815290600101906020018083116103fc57829003601f168201915b5050505050908060030154908060040154908060050154908060060180546104409061190b565b80601f016020809104026020016040519081016040528092919081815260200182805461046c9061190b565b80156104b95780601f1061048e576101008083540402835291602001916104b9565b820191906000526020600020905b81548152906001019060200180831161049c57829003601f168201915b5050506009840154600a85018054949560ff9092169491935091506104dd9061190b565b80601f01602080910402602001604051908101604052809291908181526020018280546105099061190b565b80156105565780601f1061052b57610100808354040283529160200191610556565b820191906000526020600020905b81548152906001019060200180831161053957829003601f168201915b5050505050905089565b600081815260016020526040902080546001600160a01b031633146105ea5760405162461bcd60e51b815260206004820152603560248201527f596f75206e65656420746f2062652074686520636f6e7472616374206f776e6560448201527439103a379031b630b4b6903a343290333ab732399760591b60648201526084015b60405180910390fd5b8060040154421161063d5760405162461bcd60e51b815260206004820152601d60248201527f446561646c696e65206973206e6f74206163686965766564207965742e00000060448201526064016105e1565b80600301548160050154101561073457610705816007018054806020026020016040519081016040528092919081815260200182805480156106a857602002820191906000526020600020905b81546001600160a01b0316815260019091019060200180831161068a575b5050505050826008018054806020026020016040519081016040528092919081815260200182805480156106fb57602002820191906000526020600020905b8154815260200190600101908083116106e7575b5050505050611306565b60098101805460ff19166001908117909155610720906111fc565b600a82019061072f908261198d565b505050565b805460058201546040516001600160a01b039092169181156108fc0291906000818181858888f19350505050158015610771573d6000803e3d6000fd5b5060098101805460ff19166003908117909155610720906111fc565b6000818152600160208181526040832060078101805480850182559085528285200180546001600160a01b0319163317905560088101805493840181558452922034910181905560058201549091906107e7908390611a63565b6005909101555050565b6107f961139d565b6000828152600160205260408120600481015482904211801561082457508160030154826005015410155b60408051610160810190915283546001600160a01b031681526001840180549293508492849291849160208401919061085c9061190b565b80601f01602080910402602001604051908101604052809291908181526020018280546108889061190b565b80156108d55780601f106108aa576101008083540402835291602001916108d5565b820191906000526020600020905b8154815290600101906020018083116108b857829003601f168201915b505050505081526020016002820180546108ee9061190b565b80601f016020809104026020016040519081016040528092919081815260200182805461091a9061190b565b80156109675780601f1061093c57610100808354040283529160200191610967565b820191906000526020600020905b81548152906001019060200180831161094a57829003601f168201915b5050505050815260200160038201548152602001600482015481526020016005820154815260200160068201805461099e9061190b565b80601f01602080910402602001604051908101604052809291908181526020018280546109ca9061190b565b8015610a175780601f106109ec57610100808354040283529160200191610a17565b820191906000526020600020905b8154815290600101906020018083116109fa57829003601f168201915b5050505050815260200160078201805480602002602001604051908101604052809291908181526020018280548015610a7957602002820191906000526020600020905b81546001600160a01b03168152600190910190602001808311610a5b575b5050505050815260200160088201805480602002602001604051908101604052809291908181526020018280548015610ad157602002820191906000526020600020905b815481526020019060010190808311610abd575b5050509183525050600982015460209091019060ff166003811115610af857610af861150b565b6003811115610b0957610b0961150b565b8152602001600a82018054610b1d9061190b565b80601f0160208091040260200160405190810160405280929190818152602001828054610b499061190b565b8015610b965780601f10610b6b57610100808354040283529160200191610b96565b820191906000526020600020905b815481529060010190602001808311610b7957829003601f168201915b5050505050815250509150935093505050915091565b600081815260016020819052604090912060098101805460ff19168317905590610bd5906111fc565b600a820190610be4908261198d565b50610c99816007018054806020026020016040519081016040528092919081815260200182805480156106a8576020028201919060005260206000209081546001600160a01b0316815260019091019060200180831161068a575050505050826008018054806020026020016040519081016040528092919081815260200182805480156106fb57602002820191906000526020600020908154815260200190600101908083116106e7575050505050611306565b5050565b600254600090815260016020526040812060048101544211610d165760405162461bcd60e51b815260206004820152602c60248201527f54686520646561646c696e652073686f756c642062652061206461746520696e60448201526b103a343290333aba3ab9329760a11b60648201526084016105e1565b80546001600160a01b0319166001600160a01b03891617815560018101610d3d888261198d565b5060028101610d4c878261198d565b5060038101859055600481018490556000600582015560068101610d70848261198d565b5060098101805460ff1916905560408051808201909152600681526541435449564560d01b6020820152600a820190610da9908261198d565b5060028054906000610dba83611a7c565b91905055506001600254610dce9190611a95565b98975050505050505050565b6060600060025467ffffffffffffffff811115610df957610df9611712565b604051908082528060200260200182016040528015610e3257816020015b610e1f61139d565b815260200190600190039081610e175790505b50905060005b6002548110156111f6576000818152600160208181526040928390208351610160810190945280546001600160a01b031684529182018054929392849284019190610e829061190b565b80601f0160208091040260200160405190810160405280929190818152602001828054610eae9061190b565b8015610efb5780601f10610ed057610100808354040283529160200191610efb565b820191906000526020600020905b815481529060010190602001808311610ede57829003601f168201915b50505050508152602001600282018054610f149061190b565b80601f0160208091040260200160405190810160405280929190818152602001828054610f409061190b565b8015610f8d5780601f10610f6257610100808354040283529160200191610f8d565b820191906000526020600020905b815481529060010190602001808311610f7057829003601f168201915b50505050508152602001600382015481526020016004820154815260200160058201548152602001600682018054610fc49061190b565b80601f0160208091040260200160405190810160405280929190818152602001828054610ff09061190b565b801561103d5780601f106110125761010080835404028352916020019161103d565b820191906000526020600020905b81548152906001019060200180831161102057829003601f168201915b505050505081526020016007820180548060200260200160405190810160405280929190818152602001828054801561109f57602002820191906000526020600020905b81546001600160a01b03168152600190910190602001808311611081575b50505050508152602001600882018054806020026020016040519081016040528092919081815260200182805480156110f757602002820191906000526020600020905b8154815260200190600101908083116110e3575b5050509183525050600982015460209091019060ff16600381111561111e5761111e61150b565b600381111561112f5761112f61150b565b8152602001600a820180546111439061190b565b80601f016020809104026020016040519081016040528092919081815260200182805461116f9061190b565b80156111bc5780601f10611191576101008083540402835291602001916111bc565b820191906000526020600020905b81548152906001019060200180831161119f57829003601f168201915b5050505050815250508383815181106111d7576111d7611aa8565b60200260200101819052505080806111ee90611a7c565b915050610e38565b50919050565b60608160038111156112105761121061150b565b60000361123957505060408051808201909152600681526541435449564560d01b602082015290565b81600381111561124b5761124b61150b565b60010361127957505060408051808201909152600b81526a11115050d512559055115160aa1b602082015290565b81600381111561128b5761128b61150b565b6002036112b55750506040805180820190915260078152661156141254915160ca1b602082015290565b8160038111156112c7576112c761150b565b6003036112f25750506040805180820190915260088152671192539254d2115160c21b602082015290565b505060408051602081019091526000815290565b60005b825181101561072f57600083828151811061132657611326611aa8565b60200260200101519050600083838151811061134457611344611aa8565b60200260200101519050816001600160a01b03166108fc829081150290604051600060405180830381858888f19350505050158015611387573d6000803e3d6000fd5b505050808061139590611a7c565b915050611309565b60405180610160016040528060006001600160a01b031681526020016060815260200160608152602001600081526020016000815260200160008152602001606081526020016060815260200160608152602001600060038111156114045761140461150b565b8152602001606081525090565b60006020828403121561142357600080fd5b5035919050565b600081518084526020808501945080840160005b8381101561145a5781518752958201959082019060010161143e565b509495945050505050565b604080825283519082018190526000906020906060840190828701845b828110156114a75781516001600160a01b031684529284019290840190600101611482565b505050838103828501526114bb818661142a565b9695505050505050565b6000815180845260005b818110156114eb576020818501810151868301820152016114cf565b506000602082860101526020601f19601f83011685010191505092915050565b634e487b7160e01b600052602160045260246000fd5b6004811061153f57634e487b7160e01b600052602160045260246000fd5b9052565b6001600160a01b038a168152610120602082018190526000906115688382018c6114c5565b9050828103604084015261157c818b6114c5565b90508860608401528760808401528660a084015282810360c08401526115a281876114c5565b90506115b160e0840186611521565b8281036101008401526115c481856114c5565b9c9b505050505050505050505050565b600081518084526020808501945080840160005b8381101561145a5781516001600160a01b0316875295820195908201906001016115e8565b80516001600160a01b0316825260006101606020830151816020860152611636828601826114c5565b9150506040830151848203604086015261165082826114c5565b915050606083015160608501526080830151608085015260a083015160a085015260c083015184820360c086015261168882826114c5565b91505060e083015184820360e08601526116a282826115d4565b91505061010080840151858303828701526116bd838261142a565b92505050610120808401516116d482870182611521565b505061014080840151858303828701526114bb83826114c5565b604081526000611701604083018561160d565b905082151560208301529392505050565b634e487b7160e01b600052604160045260246000fd5b600082601f83011261173957600080fd5b813567ffffffffffffffff8082111561175457611754611712565b604051601f8301601f19908116603f0116810190828211818310171561177c5761177c611712565b8160405283815286602085880101111561179557600080fd5b836020870160208301376000602085830101528094505050505092915050565b60008060008060008060c087890312156117ce57600080fd5b86356001600160a01b03811681146117e557600080fd5b9550602087013567ffffffffffffffff8082111561180257600080fd5b61180e8a838b01611728565b9650604089013591508082111561182457600080fd5b6118308a838b01611728565b9550606089013594506080890135935060a089013591508082111561185457600080fd5b5061186189828a01611728565b9150509295509295509295565b6000602080830181845280855180835260408601915060408160051b870101925083870160005b828110156118c357603f198886030184526118b185835161160d565b94509285019290850190600101611895565b5092979650505050505050565b6000602082840312156118e257600080fd5b8135600481106118f157600080fd5b9392505050565b6020815260006118f160208301846114c5565b600181811c9082168061191f57607f821691505b6020821081036111f657634e487b7160e01b600052602260045260246000fd5b601f82111561072f57600081815260208120601f850160051c810160208610156119665750805b601f850160051c820191505b8181101561198557828155600101611972565b505050505050565b815167ffffffffffffffff8111156119a7576119a7611712565b6119bb816119b5845461190b565b8461193f565b602080601f8311600181146119f057600084156119d85750858301515b600019600386901b1c1916600185901b178555611985565b600085815260208120601f198616915b82811015611a1f57888601518255948401946001909101908401611a00565b5085821015611a3d5787850151600019600388901b60f8161c191681555b5050505050600190811b01905550565b634e487b7160e01b600052601160045260246000fd5b80820180821115611a7657611a76611a4d565b92915050565b600060018201611a8e57611a8e611a4d565b5060010190565b81810381811115611a7657611a76611a4d565b634e487b7160e01b600052603260045260246000fdfea264697066735822122083a13072b8efa486a5eac8621ab2e117be2468489d4669d57359506012b7ab2c64736f6c63430008110033",
  "linkReferences": {},
  "deployedLinkReferences": {}
}