{
  "_format": "hh-sol-artifact-1",
  "contractName": "Contract",
  "sourceName": "contracts/Crowdfunding.sol",
  "abi": [
    {
      "inputs": [],
      "stateMutability": "nonpayable",
      "type": "constructor"
    },
    {
      "inputs": [
        {
          "internalType": "uint256",
          "name": "",
          "type": "uint256"
        }
      ],
      "name": "campaigns",
      "outputs": [
        {
          "internalType": "address",
          "name": "owner",
          "type": "address"
        },
        {
          "internalType": "string",
          "name": "title",
          "type": "string"
        },
        {
          "internalType": "string",
          "name": "description",
          "type": "string"
        },
        {
          "internalType": "uint256",
          "name": "target",
          "type": "uint256"
        },
        {
          "internalType": "uint256",
          "name": "deadline",
          "type": "uint256"
        },
        {
          "internalType": "uint256",
          "name": "amountCollected",
          "type": "uint256"
        },
        {
          "internalType": "string",
          "name": "image",
          "type": "string"
        },
        {
          "internalType": "enum Contract.Statuses",
          "name": "status",
          "type": "uint8"
        },
        {
          "internalType": "string",
          "name": "statusName",
          "type": "string"
        }
      ],
      "stateMutability": "view",
      "type": "function"
    },
    {
      "inputs": [
        {
          "internalType": "address",
          "name": "_owner",
          "type": "address"
        },
        {
          "internalType": "string",
          "name": "_title",
          "type": "string"
        },
        {
          "internalType": "string",
          "name": "_description",
          "type": "string"
        },
        {
          "internalType": "uint256",
          "name": "_target",
          "type": "uint256"
        },
        {
          "internalType": "uint256",
          "name": "_deadline",
          "type": "uint256"
        },
        {
          "internalType": "string",
          "name": "_image",
          "type": "string"
        }
      ],
      "name": "createCampaign",
      "outputs": [
        {
          "internalType": "uint256",
          "name": "",
          "type": "uint256"
        }
      ],
      "stateMutability": "nonpayable",
      "type": "function"
    },
    {
      "inputs": [
        {
          "internalType": "uint256",
          "name": "_id",
          "type": "uint256"
        }
      ],
      "name": "donateToCampaign",
      "outputs": [],
      "stateMutability": "payable",
      "type": "function"
    },
    {
      "inputs": [
        {
          "internalType": "uint256",
          "name": "_id",
          "type": "uint256"
        }
      ],
      "name": "getCampaign",
      "outputs": [
        {
          "components": [
            {
              "internalType": "address",
              "name": "owner",
              "type": "address"
            },
            {
              "internalType": "string",
              "name": "title",
              "type": "string"
            },
            {
              "internalType": "string",
              "name": "description",
              "type": "string"
            },
            {
              "internalType": "uint256",
              "name": "target",
              "type": "uint256"
            },
            {
              "internalType": "uint256",
              "name": "deadline",
              "type": "uint256"
            },
            {
              "internalType": "uint256",
              "name": "amountCollected",
              "type": "uint256"
            },
            {
              "internalType": "string",
              "name": "image",
              "type": "string"
            },
            {
              "internalType": "address[]",
              "name": "donators",
              "type": "address[]"
            },
            {
              "internalType": "uint256[]",
              "name": "donations",
              "type": "uint256[]"
            },
            {
              "internalType": "enum Contract.Statuses",
              "name": "status",
              "type": "uint8"
            },
            {
              "internalType": "string",
              "name": "statusName",
              "type": "string"
            }
          ],
          "internalType": "struct Contract.Campaign",
          "name": "",
          "type": "tuple"
        }
      ],
      "stateMutability": "view",
      "type": "function"
    },
    {
      "inputs": [],
      "name": "getCampaigns",
      "outputs": [
        {
          "components": [
            {
              "internalType": "address",
              "name": "owner",
              "type": "address"
            },
            {
              "internalType": "string",
              "name": "title",
              "type": "string"
            },
            {
              "internalType": "string",
              "name": "description",
              "type": "string"
            },
            {
              "internalType": "uint256",
              "name": "target",
              "type": "uint256"
            },
            {
              "internalType": "uint256",
              "name": "deadline",
              "type": "uint256"
            },
            {
              "internalType": "uint256",
              "name": "amountCollected",
              "type": "uint256"
            },
            {
              "internalType": "string",
              "name": "image",
              "type": "string"
            },
            {
              "internalType": "address[]",
              "name": "donators",
              "type": "address[]"
            },
            {
              "internalType": "uint256[]",
              "name": "donations",
              "type": "uint256[]"
            },
            {
              "internalType": "enum Contract.Statuses",
              "name": "status",
              "type": "uint8"
            },
            {
              "internalType": "string",
              "name": "statusName",
              "type": "string"
            }
          ],
          "internalType": "struct Contract.Campaign[]",
          "name": "",
          "type": "tuple[]"
        }
      ],
      "stateMutability": "view",
      "type": "function"
    },
    {
      "inputs": [
        {
          "internalType": "uint256",
          "name": "_id",
          "type": "uint256"
        }
      ],
      "name": "getDonators",
      "outputs": [
        {
          "internalType": "address[]",
          "name": "",
          "type": "address[]"
        },
        {
          "internalType": "uint256[]",
          "name": "",
          "type": "uint256[]"
        }
      ],
      "stateMutability": "view",
      "type": "function"
    },
    {
      "inputs": [
        {
          "internalType": "enum Contract.Statuses",
          "name": "status",
          "type": "uint8"
        }
      ],
      "name": "getStatusKey",
      "outputs": [
        {
          "internalType": "string",
          "name": "",
          "type": "string"
        }
      ],
      "stateMutability": "pure",
      "type": "function"
    },
    {
      "inputs": [],
      "name": "numberOfCampaigns",
      "outputs": [
        {
          "internalType": "uint256",
          "name": "",
          "type": "uint256"
        }
      ],
      "stateMutability": "view",
      "type": "function"
    },
    {
      "inputs": [
        {
          "internalType": "uint256",
          "name": "_id",
          "type": "uint256"
        },
        {
          "internalType": "enum Contract.Statuses",
          "name": "status",
          "type": "uint8"
        }
      ],
      "name": "updateCampaignStatus",
      "outputs": [],
      "stateMutability": "nonpayable",
      "type": "function"
    }
  ],
  "bytecode": "0x6080604052600060025534801561001557600080fd5b50600080546001600160a01b03191633179055611770806100376000396000f3fe6080604052600436106100865760003560e01c806342a4fda81161005957806342a4fda8146101395780635598f8cc1461014c5780639943e3a114610179578063a6b0363314610199578063d287b084146101bb57600080fd5b806307ca140d1461008b5780630fa91fa9146100b457806310eb6d50146100e2578063141961bc14610104575b600080fd5b34801561009757600080fd5b506100a160025481565b6040519081526020015b60405180910390f35b3480156100c057600080fd5b506100d46100cf366004611035565b6101e8565b6040516100ab92919061104e565b3480156100ee57600080fd5b506101026100fd3660046110e6565b6102b9565b005b34801561011057600080fd5b5061012461011f366004611035565b610325565b6040516100ab99989796959493929190611190565b610102610147366004611035565b6105a0565b34801561015857600080fd5b5061016c610167366004611035565b610604565b6040516100ab9190611380565b34801561018557600080fd5b506100a161019436600461143d565b610991565b3480156101a557600080fd5b506101ae610ad2565b6040516100ab91906114f6565b3480156101c757600080fd5b506101db6101d6366004611558565b610ef4565b6040516100ab9190611573565b60008181526001602090815260409182902060078101805484518185028101850190955280855260609485949293600801929091849183018282801561025757602002820191906000526020600020905b81546001600160a01b03168152600190910190602001808311610239575b50505050509150808054806020026020016040519081016040528092919081815260200182805480156102a957602002820191906000526020600020905b815481526020019060010190808311610295575b5050505050905091509150915091565b6000546001600160a01b031633146102d057600080fd5b60008281526001602081905260409091206009810180549192849260ff19169083600281111561030257610302611158565b021790555061031082610ef4565b600a82019061031f9082611609565b50505050565b6001602081905260009182526040909120805491810180546001600160a01b039093169261035290611586565b80601f016020809104026020016040519081016040528092919081815260200182805461037e90611586565b80156103cb5780601f106103a0576101008083540402835291602001916103cb565b820191906000526020600020905b8154815290600101906020018083116103ae57829003601f168201915b5050505050908060020180546103e090611586565b80601f016020809104026020016040519081016040528092919081815260200182805461040c90611586565b80156104595780601f1061042e57610100808354040283529160200191610459565b820191906000526020600020905b81548152906001019060200180831161043c57829003601f168201915b50505050509080600301549080600401549080600501549080600601805461048090611586565b80601f01602080910402602001604051908101604052809291908181526020018280546104ac90611586565b80156104f95780601f106104ce576101008083540402835291602001916104f9565b820191906000526020600020905b8154815290600101906020018083116104dc57829003601f168201915b5050506009840154600a85018054949560ff90921694919350915061051d90611586565b80601f016020809104026020016040519081016040528092919081815260200182805461054990611586565b80156105965780601f1061056b57610100808354040283529160200191610596565b820191906000526020600020905b81548152906001019060200180831161057957829003601f168201915b5050505050905089565b6000818152600160208181526040832060078101805480850182559085528285200180546001600160a01b0319163317905560088101805493840181558452922034910181905560058201549091906105fa9083906116df565b6005909101555050565b61060c610fc1565b6000828152600160208181526040928390208351610160810190945280546001600160a01b0316845291820180549184019161064790611586565b80601f016020809104026020016040519081016040528092919081815260200182805461067390611586565b80156106c05780601f10610695576101008083540402835291602001916106c0565b820191906000526020600020905b8154815290600101906020018083116106a357829003601f168201915b505050505081526020016002820180546106d990611586565b80601f016020809104026020016040519081016040528092919081815260200182805461070590611586565b80156107525780601f1061072757610100808354040283529160200191610752565b820191906000526020600020905b81548152906001019060200180831161073557829003601f168201915b5050505050815260200160038201548152602001600482015481526020016005820154815260200160068201805461078990611586565b80601f01602080910402602001604051908101604052809291908181526020018280546107b590611586565b80156108025780601f106107d757610100808354040283529160200191610802565b820191906000526020600020905b8154815290600101906020018083116107e557829003601f168201915b505050505081526020016007820180548060200260200160405190810160405280929190818152602001828054801561086457602002820191906000526020600020905b81546001600160a01b03168152600190910190602001808311610846575b50505050508152602001600882018054806020026020016040519081016040528092919081815260200182805480156108bc57602002820191906000526020600020905b8154815260200190600101908083116108a8575b5050509183525050600982015460209091019060ff1660028111156108e3576108e3611158565b60028111156108f4576108f4611158565b8152602001600a8201805461090890611586565b80601f016020809104026020016040519081016040528092919081815260200182805461093490611586565b80156109815780601f1061095657610100808354040283529160200191610981565b820191906000526020600020905b81548152906001019060200180831161096457829003601f168201915b5050505050815250509050919050565b600254600090815260016020526040812060048101544211610a0e5760405162461bcd60e51b815260206004820152602c60248201527f54686520646561646c696e652073686f756c642062652061206461746520696e60448201526b103a343290333aba3ab9329760a11b606482015260840160405180910390fd5b80546001600160a01b0319166001600160a01b03891617815560018101610a358882611609565b5060028101610a448782611609565b5060038101859055600481018490556000600582015560068101610a688482611609565b5060098101805460ff1916905560408051808201909152600681526541435449564560d01b6020820152600a820190610aa19082611609565b5060028054906000610ab2836116f8565b91905055506001600254610ac69190611711565b98975050505050505050565b6060600060025467ffffffffffffffff811115610af157610af161139a565b604051908082528060200260200182016040528015610b2a57816020015b610b17610fc1565b815260200190600190039081610b0f5790505b50905060005b600254811015610eee576000818152600160208181526040928390208351610160810190945280546001600160a01b031684529182018054929392849284019190610b7a90611586565b80601f0160208091040260200160405190810160405280929190818152602001828054610ba690611586565b8015610bf35780601f10610bc857610100808354040283529160200191610bf3565b820191906000526020600020905b815481529060010190602001808311610bd657829003601f168201915b50505050508152602001600282018054610c0c90611586565b80601f0160208091040260200160405190810160405280929190818152602001828054610c3890611586565b8015610c855780601f10610c5a57610100808354040283529160200191610c85565b820191906000526020600020905b815481529060010190602001808311610c6857829003601f168201915b50505050508152602001600382015481526020016004820154815260200160058201548152602001600682018054610cbc90611586565b80601f0160208091040260200160405190810160405280929190818152602001828054610ce890611586565b8015610d355780601f10610d0a57610100808354040283529160200191610d35565b820191906000526020600020905b815481529060010190602001808311610d1857829003601f168201915b5050505050815260200160078201805480602002602001604051908101604052809291908181526020018280548015610d9757602002820191906000526020600020905b81546001600160a01b03168152600190910190602001808311610d79575b5050505050815260200160088201805480602002602001604051908101604052809291908181526020018280548015610def57602002820191906000526020600020905b815481526020019060010190808311610ddb575b5050509183525050600982015460209091019060ff166002811115610e1657610e16611158565b6002811115610e2757610e27611158565b8152602001600a82018054610e3b90611586565b80601f0160208091040260200160405190810160405280929190818152602001828054610e6790611586565b8015610eb45780601f10610e8957610100808354040283529160200191610eb4565b820191906000526020600020905b815481529060010190602001808311610e9757829003601f168201915b505050505081525050838381518110610ecf57610ecf611724565b6020026020010181905250508080610ee6906116f8565b915050610b30565b50919050565b6060816002811115610f0857610f08611158565b600003610f3157505060408051808201909152600681526541435449564560d01b602082015290565b816002811115610f4357610f43611158565b600103610f7157505060408051808201909152600b81526a11115050d512559055115160aa1b602082015290565b816002811115610f8357610f83611158565b600203610fad5750506040805180820190915260078152661156141254915160ca1b602082015290565b505060408051602081019091526000815290565b60405180610160016040528060006001600160a01b0316815260200160608152602001606081526020016000815260200160008152602001600081526020016060815260200160608152602001606081526020016000600281111561102857611028611158565b8152602001606081525090565b60006020828403121561104757600080fd5b5035919050565b604080825283519082018190526000906020906060840190828701845b828110156110905781516001600160a01b03168452928401929084019060010161106b565b5050508381038285015284518082528583019183019060005b818110156110c5578351835292840192918401916001016110a9565b5090979650505050505050565b8035600381106110e157600080fd5b919050565b600080604083850312156110f957600080fd5b82359150611109602084016110d2565b90509250929050565b6000815180845260005b818110156111385760208185018101518683018201520161111c565b506000602082860101526020601f19601f83011685010191505092915050565b634e487b7160e01b600052602160045260246000fd5b6003811061118c57634e487b7160e01b600052602160045260246000fd5b9052565b6001600160a01b038a168152610120602082018190526000906111b58382018c611112565b905082810360408401526111c9818b611112565b90508860608401528760808401528660a084015282810360c08401526111ef8187611112565b90506111fe60e084018661116e565b8281036101008401526112118185611112565b9c9b505050505050505050505050565b600081518084526020808501945080840160005b8381101561125a5781516001600160a01b031687529582019590820190600101611235565b509495945050505050565b600081518084526020808501945080840160005b8381101561125a57815187529582019590820190600101611279565b80516001600160a01b03168252600061016060208301518160208601526112be82860182611112565b915050604083015184820360408601526112d88282611112565b915050606083015160608501526080830151608085015260a083015160a085015260c083015184820360c08601526113108282611112565b91505060e083015184820360e086015261132a8282611221565b91505061010080840151858303828701526113458382611265565b925050506101208084015161135c8287018261116e565b505061014080840151858303828701526113768382611112565b9695505050505050565b6020815260006113936020830184611295565b9392505050565b634e487b7160e01b600052604160045260246000fd5b600082601f8301126113c157600080fd5b813567ffffffffffffffff808211156113dc576113dc61139a565b604051601f8301601f19908116603f011681019082821181831017156114045761140461139a565b8160405283815286602085880101111561141d57600080fd5b836020870160208301376000602085830101528094505050505092915050565b60008060008060008060c0878903121561145657600080fd5b86356001600160a01b038116811461146d57600080fd5b9550602087013567ffffffffffffffff8082111561148a57600080fd5b6114968a838b016113b0565b965060408901359150808211156114ac57600080fd5b6114b88a838b016113b0565b9550606089013594506080890135935060a08901359150808211156114dc57600080fd5b506114e989828a016113b0565b9150509295509295509295565b6000602080830181845280855180835260408601915060408160051b870101925083870160005b8281101561154b57603f19888603018452611539858351611295565b9450928501929085019060010161151d565b5092979650505050505050565b60006020828403121561156a57600080fd5b611393826110d2565b6020815260006113936020830184611112565b600181811c9082168061159a57607f821691505b602082108103610eee57634e487b7160e01b600052602260045260246000fd5b601f82111561160457600081815260208120601f850160051c810160208610156115e15750805b601f850160051c820191505b81811015611600578281556001016115ed565b5050505b505050565b815167ffffffffffffffff8111156116235761162361139a565b611637816116318454611586565b846115ba565b602080601f83116001811461166c57600084156116545750858301515b600019600386901b1c1916600185901b178555611600565b600085815260208120601f198616915b8281101561169b5788860151825594840194600190910190840161167c565b50858210156116b95787850151600019600388901b60f8161c191681555b5050505050600190811b01905550565b634e487b7160e01b600052601160045260246000fd5b808201808211156116f2576116f26116c9565b92915050565b60006001820161170a5761170a6116c9565b5060010190565b818103818111156116f2576116f26116c9565b634e487b7160e01b600052603260045260246000fdfea2646970667358221220eddc26af0bc3947ce6c3e1a91cc52d413393a75673a12b4cc098a8b6e9da9c3e64736f6c63430008110033",
  "linkReferences": {},
  "deployedLinkReferences": {}
}