{
  "_format": "hh-sol-artifact-1",
  "contractName": "Contract",
  "sourceName": "contracts/Crowdfunding.sol",
  "abi": [
    {
      "inputs": [],
      "stateMutability": "nonpayable",
      "type": "constructor"
    },
    {
      "inputs": [
        {
          "internalType": "uint256",
          "name": "",
          "type": "uint256"
        }
      ],
      "name": "campaigns",
      "outputs": [
        {
          "internalType": "address",
          "name": "owner",
          "type": "address"
        },
        {
          "internalType": "string",
          "name": "title",
          "type": "string"
        },
        {
          "internalType": "string",
          "name": "description",
          "type": "string"
        },
        {
          "internalType": "uint256",
          "name": "target",
          "type": "uint256"
        },
        {
          "internalType": "uint256",
          "name": "deadline",
          "type": "uint256"
        },
        {
          "internalType": "uint256",
          "name": "amountCollected",
          "type": "uint256"
        },
        {
          "internalType": "string",
          "name": "image",
          "type": "string"
        },
        {
          "internalType": "enum Contract.Statuses",
          "name": "status",
          "type": "uint8"
        },
        {
          "internalType": "string",
          "name": "statusName",
          "type": "string"
        },
        {
          "internalType": "bool",
          "name": "isRefunded",
          "type": "bool"
        }
      ],
      "stateMutability": "view",
      "type": "function"
    },
    {
      "inputs": [
        {
          "internalType": "uint256",
          "name": "_id",
          "type": "uint256"
        }
      ],
      "name": "claim",
      "outputs": [],
      "stateMutability": "nonpayable",
      "type": "function"
    },
    {
      "inputs": [
        {
          "internalType": "address",
          "name": "_owner",
          "type": "address"
        },
        {
          "internalType": "string",
          "name": "_title",
          "type": "string"
        },
        {
          "internalType": "string",
          "name": "_description",
          "type": "string"
        },
        {
          "internalType": "uint256",
          "name": "_target",
          "type": "uint256"
        },
        {
          "internalType": "uint256",
          "name": "_deadline",
          "type": "uint256"
        },
        {
          "internalType": "string",
          "name": "_image",
          "type": "string"
        }
      ],
      "name": "createCampaign",
      "outputs": [
        {
          "internalType": "uint256",
          "name": "",
          "type": "uint256"
        }
      ],
      "stateMutability": "nonpayable",
      "type": "function"
    },
    {
      "inputs": [
        {
          "internalType": "uint256",
          "name": "_id",
          "type": "uint256"
        }
      ],
      "name": "deactivateCampaign",
      "outputs": [],
      "stateMutability": "nonpayable",
      "type": "function"
    },
    {
      "inputs": [
        {
          "internalType": "uint256",
          "name": "_id",
          "type": "uint256"
        }
      ],
      "name": "donateToCampaign",
      "outputs": [],
      "stateMutability": "payable",
      "type": "function"
    },
    {
      "inputs": [
        {
          "internalType": "uint256",
          "name": "_id",
          "type": "uint256"
        }
      ],
      "name": "getCampaign",
      "outputs": [
        {
          "components": [
            {
              "internalType": "address",
              "name": "owner",
              "type": "address"
            },
            {
              "internalType": "string",
              "name": "title",
              "type": "string"
            },
            {
              "internalType": "string",
              "name": "description",
              "type": "string"
            },
            {
              "internalType": "uint256",
              "name": "target",
              "type": "uint256"
            },
            {
              "internalType": "uint256",
              "name": "deadline",
              "type": "uint256"
            },
            {
              "internalType": "uint256",
              "name": "amountCollected",
              "type": "uint256"
            },
            {
              "internalType": "string",
              "name": "image",
              "type": "string"
            },
            {
              "internalType": "address[]",
              "name": "donators",
              "type": "address[]"
            },
            {
              "internalType": "uint256[]",
              "name": "donations",
              "type": "uint256[]"
            },
            {
              "internalType": "enum Contract.Statuses",
              "name": "status",
              "type": "uint8"
            },
            {
              "internalType": "string",
              "name": "statusName",
              "type": "string"
            },
            {
              "internalType": "bool",
              "name": "isRefunded",
              "type": "bool"
            }
          ],
          "internalType": "struct Contract.Campaign",
          "name": "",
          "type": "tuple"
        },
        {
          "internalType": "bool",
          "name": "",
          "type": "bool"
        }
      ],
      "stateMutability": "view",
      "type": "function"
    },
    {
      "inputs": [],
      "name": "getCampaigns",
      "outputs": [
        {
          "components": [
            {
              "internalType": "address",
              "name": "owner",
              "type": "address"
            },
            {
              "internalType": "string",
              "name": "title",
              "type": "string"
            },
            {
              "internalType": "string",
              "name": "description",
              "type": "string"
            },
            {
              "internalType": "uint256",
              "name": "target",
              "type": "uint256"
            },
            {
              "internalType": "uint256",
              "name": "deadline",
              "type": "uint256"
            },
            {
              "internalType": "uint256",
              "name": "amountCollected",
              "type": "uint256"
            },
            {
              "internalType": "string",
              "name": "image",
              "type": "string"
            },
            {
              "internalType": "address[]",
              "name": "donators",
              "type": "address[]"
            },
            {
              "internalType": "uint256[]",
              "name": "donations",
              "type": "uint256[]"
            },
            {
              "internalType": "enum Contract.Statuses",
              "name": "status",
              "type": "uint8"
            },
            {
              "internalType": "string",
              "name": "statusName",
              "type": "string"
            },
            {
              "internalType": "bool",
              "name": "isRefunded",
              "type": "bool"
            }
          ],
          "internalType": "struct Contract.Campaign[]",
          "name": "",
          "type": "tuple[]"
        }
      ],
      "stateMutability": "view",
      "type": "function"
    },
    {
      "inputs": [
        {
          "internalType": "uint256",
          "name": "_id",
          "type": "uint256"
        }
      ],
      "name": "getDonators",
      "outputs": [
        {
          "internalType": "address[]",
          "name": "",
          "type": "address[]"
        },
        {
          "internalType": "uint256[]",
          "name": "",
          "type": "uint256[]"
        }
      ],
      "stateMutability": "view",
      "type": "function"
    },
    {
      "inputs": [
        {
          "internalType": "enum Contract.Statuses",
          "name": "status",
          "type": "uint8"
        }
      ],
      "name": "getStatusKey",
      "outputs": [
        {
          "internalType": "string",
          "name": "",
          "type": "string"
        }
      ],
      "stateMutability": "pure",
      "type": "function"
    },
    {
      "inputs": [],
      "name": "numberOfCampaigns",
      "outputs": [
        {
          "internalType": "uint256",
          "name": "",
          "type": "uint256"
        }
      ],
      "stateMutability": "view",
      "type": "function"
    }
  ],
  "bytecode": "0x6080604052600060025534801561001557600080fd5b50600080546001600160a01b03191633179055611f46806100376000396000f3fe6080604052600436106100915760003560e01c80635598f8cc116100595780635598f8cc146101585780637eca30fe146101865780639943e3a1146101a6578063a6b03633146101c6578063d287b084146101e857600080fd5b806307ca140d146100965780630fa91fa9146100bf578063141961bc146100ed578063379607f51461012357806342a4fda814610145575b600080fd5b3480156100a257600080fd5b506100ac60025481565b6040519081526020015b60405180910390f35b3480156100cb57600080fd5b506100df6100da366004611818565b610215565b6040516100b6929190611831565b3480156100f957600080fd5b5061010d610108366004611818565b6102e6565b6040516100b69a99989796959493929190611933565b34801561012f57600080fd5b5061014361013e366004611818565b61056a565b005b610143610153366004611818565b610b3b565b34801561016457600080fd5b50610178610173366004611818565b610b9f565b6040516100b6929190611b46565b34801561019257600080fd5b506101436101a1366004611818565b610f6a565b3480156101b257600080fd5b506100ac6101c1366004611c0d565b611068565b3480156101d257600080fd5b506101db6111a5565b6040516100b69190611cc6565b3480156101f457600080fd5b50610208610203366004611d28565b6115da565b6040516100b69190611d50565b60008181526001602090815260409182902060078101805484518185028101850190955280855260609485949293600801929091849183018282801561028457602002820191906000526020600020905b81546001600160a01b03168152600190910190602001808311610266575b50505050509150808054806020026020016040519081016040528092919081815260200182805480156102d657602002820191906000526020600020905b8154815260200190600101908083116102c2575b5050505050905091509150915091565b6001602081905260009182526040909120805491810180546001600160a01b039093169261031390611d63565b80601f016020809104026020016040519081016040528092919081815260200182805461033f90611d63565b801561038c5780601f106103615761010080835404028352916020019161038c565b820191906000526020600020905b81548152906001019060200180831161036f57829003601f168201915b5050505050908060020180546103a190611d63565b80601f01602080910402602001604051908101604052809291908181526020018280546103cd90611d63565b801561041a5780601f106103ef5761010080835404028352916020019161041a565b820191906000526020600020905b8154815290600101906020018083116103fd57829003601f168201915b50505050509080600301549080600401549080600501549080600601805461044190611d63565b80601f016020809104026020016040519081016040528092919081815260200182805461046d90611d63565b80156104ba5780601f1061048f576101008083540402835291602001916104ba565b820191906000526020600020905b81548152906001019060200180831161049d57829003601f168201915b5050506009840154600a85018054949560ff9092169491935091506104de90611d63565b80601f016020809104026020016040519081016040528092919081815260200182805461050a90611d63565b80156105575780601f1061052c57610100808354040283529160200191610557565b820191906000526020600020905b81548152906001019060200180831161053a57829003601f168201915b505050600b909301549192505060ff168a565b600081815260016020526040902080546001600160a01b031633146105f45760405162461bcd60e51b815260206004820152603560248201527f596f75206e65656420746f2062652074686520636f6e7472616374206f776e6560448201527439103a379031b630b4b6903a343290333ab732399760591b60648201526084015b60405180910390fd5b806004015442116106475760405162461bcd60e51b815260206004820152601d60248201527f446561646c696e65206973206e6f74206163686965766564207965742e00000060448201526064016105eb565b60408051610180810190915281546001600160a01b031681526001820180546109d59291849160208401919061067c90611d63565b80601f01602080910402602001604051908101604052809291908181526020018280546106a890611d63565b80156106f55780601f106106ca576101008083540402835291602001916106f5565b820191906000526020600020905b8154815290600101906020018083116106d857829003601f168201915b5050505050815260200160028201805461070e90611d63565b80601f016020809104026020016040519081016040528092919081815260200182805461073a90611d63565b80156107875780601f1061075c57610100808354040283529160200191610787565b820191906000526020600020905b81548152906001019060200180831161076a57829003601f168201915b505050505081526020016003820154815260200160048201548152602001600582015481526020016006820180546107be90611d63565b80601f01602080910402602001604051908101604052809291908181526020018280546107ea90611d63565b80156108375780601f1061080c57610100808354040283529160200191610837565b820191906000526020600020905b81548152906001019060200180831161081a57829003601f168201915b505050505081526020016007820180548060200260200160405190810160405280929190818152602001828054801561089957602002820191906000526020600020905b81546001600160a01b0316815260019091019060200180831161087b575b50505050508152602001600882018054806020026020016040519081016040528092919081815260200182805480156108f157602002820191906000526020600020905b8154815260200190600101908083116108dd575b5050509183525050600982015460209091019060ff166003811115610918576109186118fb565b6003811115610929576109296118fb565b8152602001600a8201805461093d90611d63565b80601f016020809104026020016040519081016040528092919081815260200182805461096990611d63565b80156109b65780601f1061098b576101008083540402835291602001916109b6565b820191906000526020600020905b81548152906001019060200180831161099957829003601f168201915b5050509183525050600b919091015460ff1615156020909101526116e4565b15610ace57610a9281600701805480602002602001604051908101604052809291908181526020018280548015610a3557602002820191906000526020600020905b81546001600160a01b03168152600190910190602001808311610a17575b505050505082600801805480602002602001604051908101604052809291908181526020018280548015610a8857602002820191906000526020600020905b815481526020019060010190808311610a74575b5050505050611706565b60098101805460ff19166001908117909155610aad906115da565b600a820190610abc9082611de5565b50600b01805460ff1916600117905550565b805460058201546040516001600160a01b039092169181156108fc0291906000818181858888f19350505050158015610b0b573d6000803e3d6000fd5b5060098101805460ff19166003908117909155610b27906115da565b600a820190610b369082611de5565b505050565b6000818152600160208181526040832060078101805480850182559085528285200180546001600160a01b031916331790556008810180549384018155845292203491018190556005820154909190610b95908390611ebb565b6005909101555050565b610ba761179d565b60008281526001602052604081206004810154829042118015610bd257508160030154826005015410155b60408051610180810190915283546001600160a01b0316815260018401805492935084928492918491602084019190610c0a90611d63565b80601f0160208091040260200160405190810160405280929190818152602001828054610c3690611d63565b8015610c835780601f10610c5857610100808354040283529160200191610c83565b820191906000526020600020905b815481529060010190602001808311610c6657829003601f168201915b50505050508152602001600282018054610c9c90611d63565b80601f0160208091040260200160405190810160405280929190818152602001828054610cc890611d63565b8015610d155780601f10610cea57610100808354040283529160200191610d15565b820191906000526020600020905b815481529060010190602001808311610cf857829003601f168201915b50505050508152602001600382015481526020016004820154815260200160058201548152602001600682018054610d4c90611d63565b80601f0160208091040260200160405190810160405280929190818152602001828054610d7890611d63565b8015610dc55780601f10610d9a57610100808354040283529160200191610dc5565b820191906000526020600020905b815481529060010190602001808311610da857829003601f168201915b5050505050815260200160078201805480602002602001604051908101604052809291908181526020018280548015610e2757602002820191906000526020600020905b81546001600160a01b03168152600190910190602001808311610e09575b5050505050815260200160088201805480602002602001604051908101604052809291908181526020018280548015610e7f57602002820191906000526020600020905b815481526020019060010190808311610e6b575b5050509183525050600982015460209091019060ff166003811115610ea657610ea66118fb565b6003811115610eb757610eb76118fb565b8152602001600a82018054610ecb90611d63565b80601f0160208091040260200160405190810160405280929190818152602001828054610ef790611d63565b8015610f445780601f10610f1957610100808354040283529160200191610f44565b820191906000526020600020905b815481529060010190602001808311610f2757829003601f168201915b5050509183525050600b919091015460ff16151560209091015297909650945050505050565b600081815260016020819052604090912060098101805460ff19168317905590610f93906115da565b600a820190610fa29082611de5565b5061105781600701805480602002602001604051908101604052809291908181526020018280548015610a35576020028201919060005260206000209081546001600160a01b03168152600190910190602001808311610a1757505050505082600801805480602002602001604051908101604052809291908181526020018280548015610a885760200282019190600052602060002090815481526020019060010190808311610a74575050505050611706565b600b01805460ff1916600117905550565b6002546000908152600160205260408120600481015442116110e15760405162461bcd60e51b815260206004820152602c60248201527f54686520646561646c696e652073686f756c642062652061206461746520696e60448201526b103a343290333aba3ab9329760a11b60648201526084016105eb565b80546001600160a01b0319166001600160a01b038916178155600181016111088882611de5565b50600281016111178782611de5565b506003810185905560048101849055600060058201556006810161113b8482611de5565b5060098101805460ff1916905560408051808201909152600681526541435449564560d01b6020820152600a8201906111749082611de5565b506002805490600061118583611ece565b919050555060016002546111999190611ee7565b98975050505050505050565b6060600060025467ffffffffffffffff8111156111c4576111c4611b6a565b6040519080825280602002602001820160405280156111fd57816020015b6111ea61179d565b8152602001906001900390816111e25790505b50905060005b6002548110156115d4576000818152600160208181526040928390208351610180810190945280546001600160a01b03168452918201805492939284928401919061124d90611d63565b80601f016020809104026020016040519081016040528092919081815260200182805461127990611d63565b80156112c65780601f1061129b576101008083540402835291602001916112c6565b820191906000526020600020905b8154815290600101906020018083116112a957829003601f168201915b505050505081526020016002820180546112df90611d63565b80601f016020809104026020016040519081016040528092919081815260200182805461130b90611d63565b80156113585780601f1061132d57610100808354040283529160200191611358565b820191906000526020600020905b81548152906001019060200180831161133b57829003601f168201915b5050505050815260200160038201548152602001600482015481526020016005820154815260200160068201805461138f90611d63565b80601f01602080910402602001604051908101604052809291908181526020018280546113bb90611d63565b80156114085780601f106113dd57610100808354040283529160200191611408565b820191906000526020600020905b8154815290600101906020018083116113eb57829003601f168201915b505050505081526020016007820180548060200260200160405190810160405280929190818152602001828054801561146a57602002820191906000526020600020905b81546001600160a01b0316815260019091019060200180831161144c575b50505050508152602001600882018054806020026020016040519081016040528092919081815260200182805480156114c257602002820191906000526020600020905b8154815260200190600101908083116114ae575b5050509183525050600982015460209091019060ff1660038111156114e9576114e96118fb565b60038111156114fa576114fa6118fb565b8152602001600a8201805461150e90611d63565b80601f016020809104026020016040519081016040528092919081815260200182805461153a90611d63565b80156115875780601f1061155c57610100808354040283529160200191611587565b820191906000526020600020905b81548152906001019060200180831161156a57829003601f168201915b5050509183525050600b919091015460ff16151560209091015283518490849081106115b5576115b5611efa565b60200260200101819052505080806115cc90611ece565b915050611203565b50919050565b60608160038111156115ee576115ee6118fb565b60000361161757505060408051808201909152600681526541435449564560d01b602082015290565b816003811115611629576116296118fb565b60010361165757505060408051808201909152600b81526a11115050d512559055115160aa1b602082015290565b816003811115611669576116696118fb565b6002036116935750506040805180820190915260078152661156141254915160ca1b602082015290565b8160038111156116a5576116a56118fb565b6003036116d05750506040805180820190915260088152671192539254d2115160c21b602082015290565b505060408051602081019091526000815290565b6000816080015142118015611700575081606001518260a00151105b92915050565b60005b8251811015610b3657600083828151811061172657611726611efa565b60200260200101519050600083838151811061174457611744611efa565b60200260200101519050816001600160a01b03166108fc829081150290604051600060405180830381858888f19350505050158015611787573d6000803e3d6000fd5b505050808061179590611ece565b915050611709565b60405180610180016040528060006001600160a01b03168152602001606081526020016060815260200160008152602001600081526020016000815260200160608152602001606081526020016060815260200160006003811115611804576118046118fb565b815260606020820152600060409091015290565b60006020828403121561182a57600080fd5b5035919050565b604080825283519082018190526000906020906060840190828701845b828110156118735781516001600160a01b03168452928401929084019060010161184e565b5050508381038285015284518082528583019183019060005b818110156118a85783518352928401929184019160010161188c565b5090979650505050505050565b6000815180845260005b818110156118db576020818501810151868301820152016118bf565b506000602082860101526020601f19601f83011685010191505092915050565b634e487b7160e01b600052602160045260246000fd5b6004811061192f57634e487b7160e01b600052602160045260246000fd5b9052565b6001600160a01b038b168152610140602082018190526000906119588382018d6118b5565b9050828103604084015261196c818c6118b5565b90508960608401528860808401528760a084015282810360c084015261199281886118b5565b90506119a160e0840187611911565b8281036101008401526119b481866118b5565b9150508215156101208301529b9a5050505050505050505050565b600081518084526020808501945080840160005b83811015611a085781516001600160a01b0316875295820195908201906001016119e3565b509495945050505050565b600081518084526020808501945080840160005b83811015611a0857815187529582019590820190600101611a27565b80516001600160a01b0316825260006101806020830151816020860152611a6c828601826118b5565b91505060408301518482036040860152611a8682826118b5565b915050606083015160608501526080830151608085015260a083015160a085015260c083015184820360c0860152611abe82826118b5565b91505060e083015184820360e0860152611ad882826119cf565b9150506101008084015185830382870152611af38382611a13565b9250505061012080840151611b0a82870182611911565b50506101408084015185830382870152611b2483826118b5565b9250505061016080840151611b3c8287018215159052565b5090949350505050565b604081526000611b596040830185611a43565b905082151560208301529392505050565b634e487b7160e01b600052604160045260246000fd5b600082601f830112611b9157600080fd5b813567ffffffffffffffff80821115611bac57611bac611b6a565b604051601f8301601f19908116603f01168101908282118183101715611bd457611bd4611b6a565b81604052838152866020858801011115611bed57600080fd5b836020870160208301376000602085830101528094505050505092915050565b60008060008060008060c08789031215611c2657600080fd5b86356001600160a01b0381168114611c3d57600080fd5b9550602087013567ffffffffffffffff80821115611c5a57600080fd5b611c668a838b01611b80565b96506040890135915080821115611c7c57600080fd5b611c888a838b01611b80565b9550606089013594506080890135935060a0890135915080821115611cac57600080fd5b50611cb989828a01611b80565b9150509295509295509295565b6000602080830181845280855180835260408601915060408160051b870101925083870160005b82811015611d1b57603f19888603018452611d09858351611a43565b94509285019290850190600101611ced565b5092979650505050505050565b600060208284031215611d3a57600080fd5b813560048110611d4957600080fd5b9392505050565b602081526000611d4960208301846118b5565b600181811c90821680611d7757607f821691505b6020821081036115d457634e487b7160e01b600052602260045260246000fd5b601f821115610b3657600081815260208120601f850160051c81016020861015611dbe5750805b601f850160051c820191505b81811015611ddd57828155600101611dca565b505050505050565b815167ffffffffffffffff811115611dff57611dff611b6a565b611e1381611e0d8454611d63565b84611d97565b602080601f831160018114611e485760008415611e305750858301515b600019600386901b1c1916600185901b178555611ddd565b600085815260208120601f198616915b82811015611e7757888601518255948401946001909101908401611e58565b5085821015611e955787850151600019600388901b60f8161c191681555b5050505050600190811b01905550565b634e487b7160e01b600052601160045260246000fd5b8082018082111561170057611700611ea5565b600060018201611ee057611ee0611ea5565b5060010190565b8181038181111561170057611700611ea5565b634e487b7160e01b600052603260045260246000fdfea2646970667358221220dd79e0b2dac4ed30c4305d9719d62dfdcd274cbc6a0f954355534e4b138a2abb64736f6c63430008110033",
  "linkReferences": {},
  "deployedLinkReferences": {}
}